{
  "_format": "hh3-artifact-1",
  "contractName": "MedicalRecords",
  "sourceName": "contracts/MedicalRecords.sol",
  "abi": [
    {
      "inputs": [],
      "stateMutability": "nonpayable",
      "type": "constructor"
    },
    {
      "anonymous": false,
      "inputs": [
        {
          "indexed": false,
          "internalType": "string",
          "name": "recordId",
          "type": "string"
        },
        {
          "indexed": false,
          "internalType": "string",
          "name": "recordType",
          "type": "string"
        },
        {
          "indexed": false,
          "internalType": "string",
          "name": "fileHash",
          "type": "string"
        },
        {
          "indexed": false,
          "internalType": "address",
          "name": "uploadedBy",
          "type": "address"
        },
        {
          "indexed": false,
          "internalType": "uint256",
          "name": "timestamp",
          "type": "uint256"
        }
      ],
      "name": "RecordStored",
      "type": "event"
    },
    {
      "anonymous": false,
      "inputs": [
        {
          "indexed": false,
          "internalType": "string",
          "name": "recordId",
          "type": "string"
        },
        {
          "indexed": false,
          "internalType": "bool",
          "name": "isValid",
          "type": "bool"
        },
        {
          "indexed": false,
          "internalType": "uint256",
          "name": "timestamp",
          "type": "uint256"
        }
      ],
      "name": "RecordVerified",
      "type": "event"
    },
    {
      "inputs": [],
      "name": "getAllRecordIds",
      "outputs": [
        {
          "internalType": "string[]",
          "name": "",
          "type": "string[]"
        }
      ],
      "stateMutability": "view",
      "type": "function"
    },
    {
      "inputs": [
        {
          "internalType": "string",
          "name": "_recordId",
          "type": "string"
        }
      ],
      "name": "getRecord",
      "outputs": [
        {
          "internalType": "string",
          "name": "recordType",
          "type": "string"
        },
        {
          "internalType": "string",
          "name": "fileHash",
          "type": "string"
        },
        {
          "internalType": "string",
          "name": "fileUrl",
          "type": "string"
        },
        {
          "internalType": "address",
          "name": "uploadedBy",
          "type": "address"
        },
        {
          "internalType": "uint256",
          "name": "timestamp",
          "type": "uint256"
        }
      ],
      "stateMutability": "view",
      "type": "function"
    },
    {
      "inputs": [],
      "name": "getTotalRecords",
      "outputs": [
        {
          "internalType": "uint256",
          "name": "",
          "type": "uint256"
        }
      ],
      "stateMutability": "view",
      "type": "function"
    },
    {
      "inputs": [],
      "name": "owner",
      "outputs": [
        {
          "internalType": "address",
          "name": "",
          "type": "address"
        }
      ],
      "stateMutability": "view",
      "type": "function"
    },
    {
      "inputs": [
        {
          "internalType": "string",
          "name": "_recordId",
          "type": "string"
        }
      ],
      "name": "recordExists",
      "outputs": [
        {
          "internalType": "bool",
          "name": "",
          "type": "bool"
        }
      ],
      "stateMutability": "view",
      "type": "function"
    },
    {
      "inputs": [
        {
          "internalType": "string",
          "name": "_recordId",
          "type": "string"
        },
        {
          "internalType": "string",
          "name": "_recordType",
          "type": "string"
        },
        {
          "internalType": "string",
          "name": "_fileHash",
          "type": "string"
        },
        {
          "internalType": "string",
          "name": "_fileUrl",
          "type": "string"
        }
      ],
      "name": "storeRecord",
      "outputs": [],
      "stateMutability": "nonpayable",
      "type": "function"
    },
    {
      "inputs": [
        {
          "internalType": "string",
          "name": "_recordId",
          "type": "string"
        },
        {
          "internalType": "string",
          "name": "_fileHash",
          "type": "string"
        }
      ],
      "name": "verifyRecord",
      "outputs": [
        {
          "internalType": "bool",
          "name": "",
          "type": "bool"
        }
      ],
      "stateMutability": "nonpayable",
      "type": "function"
    }
  ],
  "bytecode": "0x608060405234801561001057600080fd5b50600080546001600160a01b03191633179055610e96806100326000396000f3fe608060405234801561001057600080fd5b506004361061007d5760003560e01c80633de2e8e91161005b5780633de2e8e9146100d1578063540248f0146100f45780638da5cb5b14610107578063c154935d1461013257600080fd5b80630ad105ce146100825780630aeacb5e1461009757806311dd8845146100ad575b600080fd5b610095610090366004610a09565b610147565b005b6002546040519081526020015b60405180910390f35b6100c06100bb366004610ab6565b6103d1565b6040516100a4959493929190610b43565b6100e46100df366004610b9a565b610713565b60405190151581526020016100a4565b6100e4610102366004610ab6565b610804565b60005461011a906001600160a01b031681565b6040516001600160a01b0390911681526020016100a4565b61013a610832565b6040516100a49190610bfe565b6001846040516101579190610c60565b9081526040519081900360200190206006015460ff16156101b75760405162461bcd60e51b81526020600482015260156024820152745265636f726420616c72656164792065786973747360581b60448201526064015b60405180910390fd5b60008451116102085760405162461bcd60e51b815260206004820152601960248201527f5265636f72642049442063616e6e6f7420626520656d7074790000000000000060448201526064016101ae565b60008251116102595760405162461bcd60e51b815260206004820152601960248201527f46696c6520686173682063616e6e6f7420626520656d7074790000000000000060448201526064016101ae565b6040518060e00160405280858152602001848152602001838152602001828152602001336001600160a01b03168152602001428152602001600115158152506001856040516102a89190610c60565b908152604051908190036020019020815181906102c59082610d05565b50602082015160018201906102da9082610d05565b50604082015160028201906102ef9082610d05565b50606082015160038201906103049082610d05565b5060808201516004820180546001600160a01b0319166001600160a01b0390921691909117905560a0820151600582015560c0909101516006909101805460ff1916911515919091179055600280546001810182556000919091527f405787fa12a823e0f2b7631cc41b3ba8828b3321ca811111fa75cd3aa3bb5ace0161038b8582610d05565b507f4d82d71d25d456bee3dc0e75e8754b8858fb28556a4d53160af4b042ac6b911884848433426040516103c3959493929190610b43565b60405180910390a150505050565b60608060606000806001866040516103e99190610c60565b9081526040519081900360200190206006015460ff166104435760405162461bcd60e51b8152602060048201526015602482015274149958dbdc9908191bd95cc81b9bdd08195e1a5cdd605a1b60448201526064016101ae565b60006001876040516104559190610c60565b90815260200160405180910390206040518060e001604052908160008201805461047e90610c7c565b80601f01602080910402602001604051908101604052809291908181526020018280546104aa90610c7c565b80156104f75780601f106104cc576101008083540402835291602001916104f7565b820191906000526020600020905b8154815290600101906020018083116104da57829003601f168201915b5050505050815260200160018201805461051090610c7c565b80601f016020809104026020016040519081016040528092919081815260200182805461053c90610c7c565b80156105895780601f1061055e57610100808354040283529160200191610589565b820191906000526020600020905b81548152906001019060200180831161056c57829003601f168201915b505050505081526020016002820180546105a290610c7c565b80601f01602080910402602001604051908101604052809291908181526020018280546105ce90610c7c565b801561061b5780601f106105f05761010080835404028352916020019161061b565b820191906000526020600020905b8154815290600101906020018083116105fe57829003601f168201915b5050505050815260200160038201805461063490610c7c565b80601f016020809104026020016040519081016040528092919081815260200182805461066090610c7c565b80156106ad5780601f10610682576101008083540402835291602001916106ad565b820191906000526020600020905b81548152906001019060200180831161069057829003601f168201915b505050918352505060048201546001600160a01b0316602080830191909152600583015460408084019190915260069093015460ff1615156060928301528301519183015190830151608084015160a090940151929b919a509850919650945092505050565b60006001836040516107259190610c60565b9081526040519081900360200190206006015460ff1661077f5760405162461bcd60e51b8152602060048201526015602482015274149958dbdc9908191bd95cc81b9bdd08195e1a5cdd605a1b60448201526064016101ae565b600082805190602001206001856040516107999190610c60565b90815260200160405180910390206002016040516107b79190610dc5565b60405180910390201490507f80366112f0585c7f91826d23e95ff74772920644739cd7b45b03a31c1998b0368482426040516107f593929190610e3b565b60405180910390a19392505050565b60006001826040516108169190610c60565b9081526040519081900360200190206006015460ff1692915050565b6000546060906001600160a01b0316331461088f5760405162461bcd60e51b815260206004820152601f60248201527f4f6e6c79206f776e65722063616e207669657720616c6c207265636f7264730060448201526064016101ae565b6002805480602002602001604051908101604052809291908181526020016000905b8282101561095d5783829060005260206000200180546108d090610c7c565b80601f01602080910402602001604051908101604052809291908181526020018280546108fc90610c7c565b80156109495780601f1061091e57610100808354040283529160200191610949565b820191906000526020600020905b81548152906001019060200180831161092c57829003601f168201915b5050505050815260200190600101906108b1565b50505050905090565b634e487b7160e01b600052604160045260246000fd5b600082601f83011261098d57600080fd5b813567ffffffffffffffff808211156109a8576109a8610966565b604051601f8301601f19908116603f011681019082821181831017156109d0576109d0610966565b816040528381528660208588010111156109e957600080fd5b836020870160208301376000602085830101528094505050505092915050565b60008060008060808587031215610a1f57600080fd5b843567ffffffffffffffff80821115610a3757600080fd5b610a438883890161097c565b95506020870135915080821115610a5957600080fd5b610a658883890161097c565b94506040870135915080821115610a7b57600080fd5b610a878883890161097c565b93506060870135915080821115610a9d57600080fd5b50610aaa8782880161097c565b91505092959194509250565b600060208284031215610ac857600080fd5b813567ffffffffffffffff811115610adf57600080fd5b610aeb8482850161097c565b949350505050565b60005b83811015610b0e578181015183820152602001610af6565b50506000910152565b60008151808452610b2f816020860160208601610af3565b601f01601f19169290920160200192915050565b60a081526000610b5660a0830188610b17565b8281036020840152610b688188610b17565b90508281036040840152610b7c8187610b17565b6001600160a01b039590951660608401525050608001529392505050565b60008060408385031215610bad57600080fd5b823567ffffffffffffffff80821115610bc557600080fd5b610bd18683870161097c565b93506020850135915080821115610be757600080fd5b50610bf48582860161097c565b9150509250929050565b6000602080830181845280855180835260408601915060408160051b870101925083870160005b82811015610c5357603f19888603018452610c41858351610b17565b94509285019290850190600101610c25565b5092979650505050505050565b60008251610c72818460208701610af3565b9190910192915050565b600181811c90821680610c9057607f821691505b602082108103610cb057634e487b7160e01b600052602260045260246000fd5b50919050565b601f821115610d0057600081815260208120601f850160051c81016020861015610cdd5750805b601f850160051c820191505b81811015610cfc57828155600101610ce9565b5050505b505050565b815167ffffffffffffffff811115610d1f57610d1f610966565b610d3381610d2d8454610c7c565b84610cb6565b602080601f831160018114610d685760008415610d505750858301515b600019600386901b1c1916600185901b178555610cfc565b600085815260208120601f198616915b82811015610d9757888601518255948401946001909101908401610d78565b5085821015610db55787850151600019600388901b60f8161c191681555b5050505050600190811b01905550565b6000808354610dd381610c7c565b60018281168015610deb5760018114610e0057610e2f565b60ff1984168752821515830287019450610e2f565b8760005260208060002060005b85811015610e265781548a820152908401908201610e0d565b50505082870194505b50929695505050505050565b606081526000610e4e6060830186610b17565b9315156020830152506040015291905056fea264697066735822122095a8a2e022a21345df281a739c7bb195ca533be14f3c2e593d5b7d8666af129064736f6c63430008130033",
  "linkReferences": {},
  "deployedLinkReferences": {},
  "immutableReferences": {},
  "inputSourceName": "project/contracts/MedicalRecords.sol",
  "buildInfoId": "solc-0_8_19-768855cced0d63b2537048ca79fadf6d350ad40b"
}